:020000040000FA
:1000000002005000000080FB12005FB900030200F4
:100010004AE4900001780D79018002F0A3D8FCD960
:10002000FA90000DAA82AB83900062780779018074
:1000300015E493A3AC82AD838A828B83F0A3AA825A
:10004000AB838C828D83D8E9D9E71204A012000318
:1000500075D0007581BF75108075931E02000879F8
:100060000122202020000A00C3E498F8E499F91244
:1000700000A98026C3E49AFAE49BFBE920E7E91291
:1000800000A9E498F8E499F922C3E498F8E499F90E
:100090001200A9E498F8E499F9C3E49AFAE49BFB06
:1000A00022EB20E7CFE920E7E0B90010BB0008E829
:1000B0008AF084F8AAF022E4FBC8FA22EB70227BD3
:1000C00010C833C8C933C9335007C39AC3DBF280A1
:1000D000069A50012ADBEAC833F4C8C933F4C9FAD6
:1000E0002275F008E4C833C8C933C933C99AC99B1B
:1000F0005004C92AC93BD5F0ECFBC833F4C8E4C9A5
:10010000FA22D083D0822510F8C510C39824FBCEE4
:10011000F208E520F208E9C0E07908E709F208DE14
:10012000FAD0E0F9EFF208D0E0FED0E0F208EEF20B
:1001300008E473A810E2FE08E208F520E9C0E079BF
:1001400008E208F709DFFAE208FFD0E0F9E208C0A8
:10015000E0E208C0E088102278058020000000005E
:10016000000000000000000000000000000000008F
:10017000000000000000000000000000E8F974FF2B
:1001800029F8E970D722D287D286120158C2871285
:100190000158C286020158C287D286120158D287FE
:1001A000020158EEC0E0E9FEA2E09287D286120179
:1001B00058C286120158D0E0FE22D286120158534E
:1001C000FD7FA28792D743FD80C286120158A2D735
:1001D000E433F92274FA120102E9FF7E008013EF82
:1001E000C333FFA2D79287D286120158C28612016A
:1001F000580EEEC3940840E71201BAE97F010201EC
:100200003374FA120102750800D2877E00801DE562
:1002100008C333F508D28612015853FD7FA287E444
:1002200033420843FD80C2861201580EEEC3940883
:1002300040DDA9087F0102013374FA120102E9FFCF
:10024000EAFE12018679D01201D4EFF91201D4EE40
:10025000F91201D41201977F0102013374FA1201DD
:1002600002E9FF12018679D01201D4EFF91201D40C
:1002700012018679D11201D4120201E9FE7901122C
:1002800001A3120197EEF97F0102013353F43F43BA
:10029000FD8043FD407A00796B1202397A077919A3
:1002A0001202397A06791A1202397A18791B120267
:1002B000397A01791C020239E51024F4F510793BF2
:1002C00012025CE9C0E0E510A810D0E0F2793C121F
:1002D000025CE9C0E0E5102401F8D0E0F2793D12BB
:1002E000025CE9C0E0E5102402F8D0E0F2793E12A9
:1002F000025CE9C0E0E5102403F8D0E0F2793F1297
:10030000025CE9C0E0E5102404F8D0E0F279401284
:10031000025CE9C0E0E5102405F8D0E0F279431270
:10032000025CE9C0E0E5102406F8D0E0F27944125E
:10033000025CE9C0E0E5102407F8D0E0F27945124C
:10034000025CE9C0E0E5102408F8D0E0F27946123A
:10035000025CE9C0E0E5102409F8D0E0F279471228
:10036000025CE9C0E0E510240AF8D0E0F279481216
:10037000025CE9C0E0E510240BF8D0E0F2E510A83B
:1003800010E2FA7B00E4CAFBE5102401F8E2F879F8
:1003900000EA48F8EB49F9900001E8F0A3E9F0E53C
:1003A000102402F8E2FA7B00E4CAFBE5102403F80B
:1003B000E2F87900EA48F8EB49F9900003E8F0A385
:1003C000E9F0E5102404F8E2FA7B00E4CAFBE5104A
:1003D0002405F8E2F87900EA48F8EB49F9900005BD
:1003E000E8F0A3E9F0E5102406F8E2FA7B00E4CA9D
:1003F000FBE5102407F8E2F87900EA48F8EB49F940
:10040000900007E8F0A3E9F0E5102408F8E2FA7B91
:1004100000E4CAFBE5102409F8E2F87900EA48F89C
:10042000EB49F9900009E8F0A3E9F0E510240AF897
:10043000E2FA7B00E4CAFBE510240BF8E2F879004D
:10044000EA48F8EB49F990000BE8F0A3E9F092F0E4
:10045000E510240CF510A2F02253C6BFE59EA2E6DB
:1004600040FA53C6B8227C007D008019E82401F8C8
:10047000E93400F9C3E894EEE9940640EFEC240176
:10048000FCED3400FDC3EC9AED9B5006780079003A
:1004900080E22243FE0143F60143FE0243F60222BC
:1004A000120459120560120493D290C29112028C68
:1004B0001202B8900001E0FAA3E0FB1205C67C032B
:1004C0007D007A0D7B0012057E900003E0FAA3E028
:1004D000FB1205C67C037D007A0D7B0012057E9021
:1004E0000005E0FAA3E0FB1205C67C037D007A0D4F
:1004F0007B0012057E7C017D007A117B0012057E57
:10050000900007E0FAA3E0FB1205C67C037D007AA9
:100510000D7B0012057E900009E0FAA3E0FB1205B6
:10052000C67C037D007A0D7B0012057E90000BE0F7
:10053000FAA3E0FB1205C67C017D007A117B001254
:10054000057ED2F0A29030F001B39290D2F0A29149
:1005500030F001B392917AE87B031204660204B092
:1005600075F10075F30C53FF3F43868043C50B4381
:10057000C2D8C2E92289C1A2E950FCC2E92274F7BB
:10058000120102EAFEEBFF8C0A8D0B75080075095B
:1005900000801E8E828F83E0F91205758E828F8314
:1005A000A3AE82AF83E5082401F508E5093400F520
:1005B00009C3E508950AE509950BA2D265D0334039
:1005C000D27F0402013374FA120102E51024FBF514
:1005D00010EAFEEBFFC3EE9400EF9400A2D265D0C8
:1005E000335012792D120575C3E49EF8E49FF9E8A3
:1005F000FEE9FF8005792B120575EEF8EFF97A1008
:100600007B271200A1E82430C0E0E510A810D0E05C
:10061000F2EEF8EFF97A107B271200A1EAF8EBF975
:100620007AE87B031200A1E82430C0E0E510240141
:10063000F8D0E0F2EEF8EFF97AE87B031200A1EAD5
:10064000F8EBF97A647B001200A1E82430C0E0E501
:10065000102402F8D0E0F2EEF8EFF97A647B001291
:1006600000A1EAF8EBF97A0A7B001200A1E8243035
:10067000C0E0E5102403F8D0E0F2EEF8EFF97A0AD2
:100680007B001200A1EA2430C0E0E5102404F8D079
:10069000E0F27C057D00E510AA10AB9312057E0503
:0E06A0001005100510051005107F0102013332
:0400000500000050A7
:00000001FF
